{
  "_format": "hh-sol-artifact-1",
  "contractName": "NFTMint",
  "sourceName": "contracts/NFTMint.sol",
  "abi": [
    {
      "inputs": [],
      "stateMutability": "nonpayable",
      "type": "constructor"
    },
    {
      "inputs": [
        {
          "internalType": "address",
          "name": "sender",
          "type": "address"
        },
        {
          "internalType": "uint256",
          "name": "tokenId",
          "type": "uint256"
        },
        {
          "internalType": "address",
          "name": "owner",
          "type": "address"
        }
      ],
      "name": "ERC721IncorrectOwner",
      "type": "error"
    },
    {
      "inputs": [
        {
          "internalType": "address",
          "name": "operator",
          "type": "address"
        },
        {
          "internalType": "uint256",
          "name": "tokenId",
          "type": "uint256"
        }
      ],
      "name": "ERC721InsufficientApproval",
      "type": "error"
    },
    {
      "inputs": [
        {
          "internalType": "address",
          "name": "approver",
          "type": "address"
        }
      ],
      "name": "ERC721InvalidApprover",
      "type": "error"
    },
    {
      "inputs": [
        {
          "internalType": "address",
          "name": "operator",
          "type": "address"
        }
      ],
      "name": "ERC721InvalidOperator",
      "type": "error"
    },
    {
      "inputs": [
        {
          "internalType": "address",
          "name": "owner",
          "type": "address"
        }
      ],
      "name": "ERC721InvalidOwner",
      "type": "error"
    },
    {
      "inputs": [
        {
          "internalType": "address",
          "name": "receiver",
          "type": "address"
        }
      ],
      "name": "ERC721InvalidReceiver",
      "type": "error"
    },
    {
      "inputs": [
        {
          "internalType": "address",
          "name": "sender",
          "type": "address"
        }
      ],
      "name": "ERC721InvalidSender",
      "type": "error"
    },
    {
      "inputs": [
        {
          "internalType": "uint256",
          "name": "tokenId",
          "type": "uint256"
        }
      ],
      "name": "ERC721NonexistentToken",
      "type": "error"
    },
    {
      "inputs": [
        {
          "internalType": "address",
          "name": "owner",
          "type": "address"
        }
      ],
      "name": "OwnableInvalidOwner",
      "type": "error"
    },
    {
      "inputs": [
        {
          "internalType": "address",
          "name": "account",
          "type": "address"
        }
      ],
      "name": "OwnableUnauthorizedAccount",
      "type": "error"
    },
    {
      "anonymous": false,
      "inputs": [
        {
          "indexed": true,
          "internalType": "address",
          "name": "owner",
          "type": "address"
        },
        {
          "indexed": true,
          "internalType": "address",
          "name": "approved",
          "type": "address"
        },
        {
          "indexed": true,
          "internalType": "uint256",
          "name": "tokenId",
          "type": "uint256"
        }
      ],
      "name": "Approval",
      "type": "event"
    },
    {
      "anonymous": false,
      "inputs": [
        {
          "indexed": true,
          "internalType": "address",
          "name": "owner",
          "type": "address"
        },
        {
          "indexed": true,
          "internalType": "address",
          "name": "operator",
          "type": "address"
        },
        {
          "indexed": false,
          "internalType": "bool",
          "name": "approved",
          "type": "bool"
        }
      ],
      "name": "ApprovalForAll",
      "type": "event"
    },
    {
      "anonymous": false,
      "inputs": [
        {
          "indexed": false,
          "internalType": "uint256",
          "name": "_fromTokenId",
          "type": "uint256"
        },
        {
          "indexed": false,
          "internalType": "uint256",
          "name": "_toTokenId",
          "type": "uint256"
        }
      ],
      "name": "BatchMetadataUpdate",
      "type": "event"
    },
    {
      "anonymous": false,
      "inputs": [
        {
          "indexed": false,
          "internalType": "uint256",
          "name": "_tokenId",
          "type": "uint256"
        }
      ],
      "name": "MetadataUpdate",
      "type": "event"
    },
    {
      "anonymous": false,
      "inputs": [
        {
          "indexed": true,
          "internalType": "address",
          "name": "previousOwner",
          "type": "address"
        },
        {
          "indexed": true,
          "internalType": "address",
          "name": "newOwner",
          "type": "address"
        }
      ],
      "name": "OwnershipTransferred",
      "type": "event"
    },
    {
      "anonymous": false,
      "inputs": [
        {
          "indexed": true,
          "internalType": "address",
          "name": "from",
          "type": "address"
        },
        {
          "indexed": true,
          "internalType": "address",
          "name": "to",
          "type": "address"
        },
        {
          "indexed": true,
          "internalType": "uint256",
          "name": "tokenId",
          "type": "uint256"
        }
      ],
      "name": "Transfer",
      "type": "event"
    },
    {
      "inputs": [
        {
          "internalType": "address",
          "name": "to",
          "type": "address"
        },
        {
          "internalType": "uint256",
          "name": "tokenId",
          "type": "uint256"
        }
      ],
      "name": "approve",
      "outputs": [],
      "stateMutability": "nonpayable",
      "type": "function"
    },
    {
      "inputs": [
        {
          "internalType": "address",
          "name": "owner",
          "type": "address"
        }
      ],
      "name": "balanceOf",
      "outputs": [
        {
          "internalType": "uint256",
          "name": "",
          "type": "uint256"
        }
      ],
      "stateMutability": "view",
      "type": "function"
    },
    {
      "inputs": [
        {
          "internalType": "uint256",
          "name": "tokenId",
          "type": "uint256"
        }
      ],
      "name": "getApproved",
      "outputs": [
        {
          "internalType": "address",
          "name": "",
          "type": "address"
        }
      ],
      "stateMutability": "view",
      "type": "function"
    },
    {
      "inputs": [
        {
          "internalType": "address",
          "name": "owner",
          "type": "address"
        },
        {
          "internalType": "address",
          "name": "operator",
          "type": "address"
        }
      ],
      "name": "isApprovedForAll",
      "outputs": [
        {
          "internalType": "bool",
          "name": "",
          "type": "bool"
        }
      ],
      "stateMutability": "view",
      "type": "function"
    },
    {
      "inputs": [
        {
          "internalType": "address",
          "name": "recipient",
          "type": "address"
        },
        {
          "internalType": "string",
          "name": "tokenURI",
          "type": "string"
        }
      ],
      "name": "mintNFT",
      "outputs": [
        {
          "internalType": "uint256",
          "name": "",
          "type": "uint256"
        }
      ],
      "stateMutability": "nonpayable",
      "type": "function"
    },
    {
      "inputs": [],
      "name": "name",
      "outputs": [
        {
          "internalType": "string",
          "name": "",
          "type": "string"
        }
      ],
      "stateMutability": "view",
      "type": "function"
    },
    {
      "inputs": [],
      "name": "owner",
      "outputs": [
        {
          "internalType": "address",
          "name": "",
          "type": "address"
        }
      ],
      "stateMutability": "view",
      "type": "function"
    },
    {
      "inputs": [
        {
          "internalType": "uint256",
          "name": "tokenId",
          "type": "uint256"
        }
      ],
      "name": "ownerOf",
      "outputs": [
        {
          "internalType": "address",
          "name": "",
          "type": "address"
        }
      ],
      "stateMutability": "view",
      "type": "function"
    },
    {
      "inputs": [],
      "name": "renounceOwnership",
      "outputs": [],
      "stateMutability": "nonpayable",
      "type": "function"
    },
    {
      "inputs": [
        {
          "internalType": "address",
          "name": "from",
          "type": "address"
        },
        {
          "internalType": "address",
          "name": "to",
          "type": "address"
        },
        {
          "internalType": "uint256",
          "name": "tokenId",
          "type": "uint256"
        }
      ],
      "name": "safeTransferFrom",
      "outputs": [],
      "stateMutability": "nonpayable",
      "type": "function"
    },
    {
      "inputs": [
        {
          "internalType": "address",
          "name": "from",
          "type": "address"
        },
        {
          "internalType": "address",
          "name": "to",
          "type": "address"
        },
        {
          "internalType": "uint256",
          "name": "tokenId",
          "type": "uint256"
        },
        {
          "internalType": "bytes",
          "name": "data",
          "type": "bytes"
        }
      ],
      "name": "safeTransferFrom",
      "outputs": [],
      "stateMutability": "nonpayable",
      "type": "function"
    },
    {
      "inputs": [
        {
          "internalType": "address",
          "name": "operator",
          "type": "address"
        },
        {
          "internalType": "bool",
          "name": "approved",
          "type": "bool"
        }
      ],
      "name": "setApprovalForAll",
      "outputs": [],
      "stateMutability": "nonpayable",
      "type": "function"
    },
    {
      "inputs": [
        {
          "internalType": "bytes4",
          "name": "interfaceId",
          "type": "bytes4"
        }
      ],
      "name": "supportsInterface",
      "outputs": [
        {
          "internalType": "bool",
          "name": "",
          "type": "bool"
        }
      ],
      "stateMutability": "view",
      "type": "function"
    },
    {
      "inputs": [],
      "name": "symbol",
      "outputs": [
        {
          "internalType": "string",
          "name": "",
          "type": "string"
        }
      ],
      "stateMutability": "view",
      "type": "function"
    },
    {
      "inputs": [
        {
          "internalType": "uint256",
          "name": "tokenId",
          "type": "uint256"
        }
      ],
      "name": "tokenURI",
      "outputs": [
        {
          "internalType": "string",
          "name": "",
          "type": "string"
        }
      ],
      "stateMutability": "view",
      "type": "function"
    },
    {
      "inputs": [
        {
          "internalType": "address",
          "name": "from",
          "type": "address"
        },
        {
          "internalType": "address",
          "name": "to",
          "type": "address"
        },
        {
          "internalType": "uint256",
          "name": "tokenId",
          "type": "uint256"
        }
      ],
      "name": "transferFrom",
      "outputs": [],
      "stateMutability": "nonpayable",
      "type": "function"
    },
    {
      "inputs": [
        {
          "internalType": "address",
          "name": "newOwner",
          "type": "address"
        }
      ],
      "name": "transferOwnership",
      "outputs": [],
      "stateMutability": "nonpayable",
      "type": "function"
    }
  ],
  "bytecode": "0x60806040523480156200001157600080fd5b50336040518060400160405280600581526020017f4d794e46540000000000000000000000000000000000000000000000000000008152506040518060400160405280600481526020017f4d4e465400000000000000000000000000000000000000000000000000000000815250816000908162000090919062000472565b508060019081620000a2919062000472565b505050600073ffffffffffffffffffffffffffffffffffffffff168173ffffffffffffffffffffffffffffffffffffffff16036200011a5760006040517f1e4fbdf70000000000000000000000000000000000000000000000000000000081526004016200011191906200059e565b60405180910390fd5b6200012b816200013260201b60201c565b50620005bb565b6000600760009054906101000a900473ffffffffffffffffffffffffffffffffffffffff16905081600760006101000a81548173ffffffffffffffffffffffffffffffffffffffff021916908373ffffffffffffffffffffffffffffffffffffffff1602179055508173ffffffffffffffffffffffffffffffffffffffff168173ffffffffffffffffffffffffffffffffffffffff167f8be0079c531659141344cd1fd0a4f28419497f9722a3daafe3b4186f6b6457e060405160405180910390a35050565b600081519050919050565b7f4e487b7100000000000000000000000000000000000000000000000000000000600052604160045260246000fd5b7f4e487b7100000000000000000000000000000000000000000000000000000000600052602260045260246000fd5b600060028204905060018216806200027a57607f821691505b60208210810362000290576200028f62000232565b5b50919050565b60008190508160005260206000209050919050565b60006020601f8301049050919050565b600082821b905092915050565b600060088302620002fa7fffffffffffffffffffffffffffffffffffffffffffffffffffffffffffffffff82620002bb565b620003068683620002bb565b95508019841693508086168417925050509392505050565b6000819050919050565b6000819050919050565b6000620003536200034d62000347846200031e565b62000328565b6200031e565b9050919050565b6000819050919050565b6200036f8362000332565b620003876200037e826200035a565b848454620002c8565b825550505050565b600090565b6200039e6200038f565b620003ab81848462000364565b505050565b5b81811015620003d357620003c760008262000394565b600181019050620003b1565b5050565b601f8211156200042257620003ec8162000296565b620003f784620002ab565b8101602085101562000407578190505b6200041f6200041685620002ab565b830182620003b0565b50505b505050565b600082821c905092915050565b6000620004476000198460080262000427565b1980831691505092915050565b600062000462838362000434565b9150826002028217905092915050565b6200047d82620001f8565b67ffffffffffffffff81111562000499576200049862000203565b5b620004a5825462000261565b620004b2828285620003d7565b600060209050601f831160018114620004ea5760008415620004d5578287015190505b620004e1858262000454565b86555062000551565b601f198416620004fa8662000296565b60005b828110156200052457848901518255600182019150602085019450602081019050620004fd565b8683101562000544578489015162000540601f89168262000434565b8355505b6001600288020188555050505b505050505050565b600073ffffffffffffffffffffffffffffffffffffffff82169050919050565b6000620005868262000559565b9050919050565b620005988162000579565b82525050565b6000602082019050620005b560008301846200058d565b92915050565b61263980620005cb6000396000f3fe608060405234801561001057600080fd5b506004361061010b5760003560e01c8063715018a6116100a2578063b88d4fde11610071578063b88d4fde146102a4578063c87b56dd146102c0578063e985e9c5146102f0578063eacabe1414610320578063f2fde38b146103505761010b565b8063715018a6146102425780638da5cb5b1461024c57806395d89b411461026a578063a22cb465146102885761010b565b806323b872dd116100de57806323b872dd146101aa57806342842e0e146101c65780636352211e146101e257806370a08231146102125761010b565b806301ffc9a71461011057806306fdde0314610140578063081812fc1461015e578063095ea7b31461018e575b600080fd5b61012a60048036038101906101259190611a91565b61036c565b6040516101379190611ad9565b60405180910390f35b6101486103cd565b6040516101559190611b84565b60405180910390f35b61017860048036038101906101739190611bdc565b61045f565b6040516101859190611c4a565b60405180910390f35b6101a860048036038101906101a39190611c91565b61047b565b005b6101c460048036038101906101bf9190611cd1565b610491565b005b6101e060048036038101906101db9190611cd1565b610593565b005b6101fc60048036038101906101f79190611bdc565b6105b3565b6040516102099190611c4a565b60405180910390f35b61022c60048036038101906102279190611d24565b6105c5565b6040516102399190611d60565b60405180910390f35b61024a61067f565b005b610254610693565b6040516102619190611c4a565b60405180910390f35b6102726106bd565b60405161027f9190611b84565b60405180910390f35b6102a2600480360381019061029d9190611da7565b61074f565b005b6102be60048036038101906102b99190611f1c565b610765565b005b6102da60048036038101906102d59190611bdc565b61078a565b6040516102e79190611b84565b60405180910390f35b61030a60048036038101906103059190611f9f565b61089d565b6040516103179190611ad9565b60405180910390f35b61033a60048036038101906103359190612080565b610931565b6040516103479190611d60565b60405180910390f35b61036a60048036038101906103659190611d24565b610970565b005b6000634906490660e01b7bffffffffffffffffffffffffffffffffffffffffffffffffffffffff1916827bffffffffffffffffffffffffffffffffffffffffffffffffffffffff191614806103c657506103c5826109f6565b5b9050919050565b6060600080546103dc9061210b565b80601f01602080910402602001604051908101604052809291908181526020018280546104089061210b565b80156104555780601f1061042a57610100808354040283529160200191610455565b820191906000526020600020905b81548152906001019060200180831161043857829003601f168201915b5050505050905090565b600061046a82610ad8565b5061047482610b60565b9050919050565b61048d8282610488610b9d565b610ba5565b5050565b600073ffffffffffffffffffffffffffffffffffffffff168273ffffffffffffffffffffffffffffffffffffffff16036105035760006040517f64a0ae920000000000000000000000000000000000000000000000000000000081526004016104fa9190611c4a565b60405180910390fd5b60006105178383610512610b9d565b610bb7565b90508373ffffffffffffffffffffffffffffffffffffffff168173ffffffffffffffffffffffffffffffffffffffff161461058d578382826040517f64283d7b0000000000000000000000000000000000000000000000000000000081526004016105849392919061213c565b60405180910390fd5b50505050565b6105ae83838360405180602001604052806000815250610765565b505050565b60006105be82610ad8565b9050919050565b60008073ffffffffffffffffffffffffffffffffffffffff168273ffffffffffffffffffffffffffffffffffffffff16036106385760006040517f89c62b6400000000000000000000000000000000000000000000000000000000815260040161062f9190611c4a565b60405180910390fd5b600360008373ffffffffffffffffffffffffffffffffffffffff1673ffffffffffffffffffffffffffffffffffffffff168152602001908152602001600020549050919050565b610687610dd1565b6106916000610e58565b565b6000600760009054906101000a900473ffffffffffffffffffffffffffffffffffffffff16905090565b6060600180546106cc9061210b565b80601f01602080910402602001604051908101604052809291908181526020018280546106f89061210b565b80156107455780601f1061071a57610100808354040283529160200191610745565b820191906000526020600020905b81548152906001019060200180831161072857829003601f168201915b5050505050905090565b61076161075a610b9d565b8383610f1e565b5050565b610770848484610491565b61078461077b610b9d565b8585858561108d565b50505050565b606061079582610ad8565b5060006006600084815260200190815260200160002080546107b69061210b565b80601f01602080910402602001604051908101604052809291908181526020018280546107e29061210b565b801561082f5780601f106108045761010080835404028352916020019161082f565b820191906000526020600020905b81548152906001019060200180831161081257829003601f168201915b50505050509050600061084061123e565b90506000815103610855578192505050610898565b60008251111561088a5780826040516020016108729291906121af565b60405160208183030381529060405292505050610898565b61089384611255565b925050505b919050565b6000600560008473ffffffffffffffffffffffffffffffffffffffff1673ffffffffffffffffffffffffffffffffffffffff16815260200190815260200160002060008373ffffffffffffffffffffffffffffffffffffffff1673ffffffffffffffffffffffffffffffffffffffff16815260200190815260200160002060009054906101000a900460ff16905092915050565b60006008600081548092919061094690612202565b91905055506000600854905061095c84826112be565b61096681846113b7565b8091505092915050565b610978610dd1565b600073ffffffffffffffffffffffffffffffffffffffff168173ffffffffffffffffffffffffffffffffffffffff16036109ea5760006040517f1e4fbdf70000000000000000000000000000000000000000000000000000000081526004016109e19190611c4a565b60405180910390fd5b6109f381610e58565b50565b60007f80ac58cd000000000000000000000000000000000000000000000000000000007bffffffffffffffffffffffffffffffffffffffffffffffffffffffff1916827bffffffffffffffffffffffffffffffffffffffffffffffffffffffff19161480610ac157507f5b5e139f000000000000000000000000000000000000000000000000000000007bffffffffffffffffffffffffffffffffffffffffffffffffffffffff1916827bffffffffffffffffffffffffffffffffffffffffffffffffffffffff1916145b80610ad15750610ad082611413565b5b9050919050565b600080610ae48361147d565b9050600073ffffffffffffffffffffffffffffffffffffffff168173ffffffffffffffffffffffffffffffffffffffff1603610b5757826040517f7e273289000000000000000000000000000000000000000000000000000000008152600401610b4e9190611d60565b60405180910390fd5b80915050919050565b60006004600083815260200190815260200160002060009054906101000a900473ffffffffffffffffffffffffffffffffffffffff169050919050565b600033905090565b610bb283838360016114ba565b505050565b600080610bc38461147d565b9050600073ffffffffffffffffffffffffffffffffffffffff168373ffffffffffffffffffffffffffffffffffffffff1614610c0557610c0481848661167f565b5b600073ffffffffffffffffffffffffffffffffffffffff168173ffffffffffffffffffffffffffffffffffffffff1614610c9657610c476000856000806114ba565b6001600360008373ffffffffffffffffffffffffffffffffffffffff1673ffffffffffffffffffffffffffffffffffffffff168152602001908152602001600020600082825403925050819055505b600073ffffffffffffffffffffffffffffffffffffffff168573ffffffffffffffffffffffffffffffffffffffff1614610d19576001600360008773ffffffffffffffffffffffffffffffffffffffff1673ffffffffffffffffffffffffffffffffffffffff168152602001908152602001600020600082825401925050819055505b846002600086815260200190815260200160002060006101000a81548173ffffffffffffffffffffffffffffffffffffffff021916908373ffffffffffffffffffffffffffffffffffffffff160217905550838573ffffffffffffffffffffffffffffffffffffffff168273ffffffffffffffffffffffffffffffffffffffff167fddf252ad1be2c89b69c2b068fc378daa952ba7f163c4a11628f55a4df523b3ef60405160405180910390a4809150509392505050565b610dd9610b9d565b73ffffffffffffffffffffffffffffffffffffffff16610df7610693565b73ffffffffffffffffffffffffffffffffffffffff1614610e5657610e1a610b9d565b6040517f118cdaa7000000000000000000000000000000000000000000000000000000008152600401610e4d9190611c4a565b60405180910390fd5b565b6000600760009054906101000a900473ffffffffffffffffffffffffffffffffffffffff16905081600760006101000a81548173ffffffffffffffffffffffffffffffffffffffff021916908373ffffffffffffffffffffffffffffffffffffffff1602179055508173ffffffffffffffffffffffffffffffffffffffff168173ffffffffffffffffffffffffffffffffffffffff167f8be0079c531659141344cd1fd0a4f28419497f9722a3daafe3b4186f6b6457e060405160405180910390a35050565b600073ffffffffffffffffffffffffffffffffffffffff168273ffffffffffffffffffffffffffffffffffffffff1603610f8f57816040517f5b08ba18000000000000000000000000000000000000000000000000000000008152600401610f869190611c4a565b60405180910390fd5b80600560008573ffffffffffffffffffffffffffffffffffffffff1673ffffffffffffffffffffffffffffffffffffffff16815260200190815260200160002060008473ffffffffffffffffffffffffffffffffffffffff1673ffffffffffffffffffffffffffffffffffffffff16815260200190815260200160002060006101000a81548160ff0219169083151502179055508173ffffffffffffffffffffffffffffffffffffffff168373ffffffffffffffffffffffffffffffffffffffff167f17307eab39ab6107e8899845ad3d59bd9653f200f220920489ca2b5937696c31836040516110809190611ad9565b60405180910390a3505050565b60008373ffffffffffffffffffffffffffffffffffffffff163b1115611237578273ffffffffffffffffffffffffffffffffffffffff1663150b7a02868685856040518563ffffffff1660e01b81526004016110ec949392919061229f565b6020604051808303816000875af192505050801561112857506040513d601f19601f820116820180604052508101906111259190612300565b60015b6111ac573d8060008114611158576040519150601f19603f3d011682016040523d82523d6000602084013e61115d565b606091505b5060008151036111a457836040517f64a0ae9200000000000000000000000000000000000000000000000000000000815260040161119b9190611c4a565b60405180910390fd5b805181602001fd5b63150b7a0260e01b7bffffffffffffffffffffffffffffffffffffffffffffffffffffffff1916817bffffffffffffffffffffffffffffffffffffffffffffffffffffffff19161461123557836040517f64a0ae9200000000000000000000000000000000000000000000000000000000815260040161122c9190611c4a565b60405180910390fd5b505b5050505050565b606060405180602001604052806000815250905090565b606061126082610ad8565b50600061126b61123e565b9050600081511161128b57604051806020016040528060008152506112b6565b8061129584611743565b6040516020016112a69291906121af565b6040516020818303038152906040525b915050919050565b600073ffffffffffffffffffffffffffffffffffffffff168273ffffffffffffffffffffffffffffffffffffffff16036113305760006040517f64a0ae920000000000000000000000000000000000000000000000000000000081526004016113279190611c4a565b60405180910390fd5b600061133e83836000610bb7565b9050600073ffffffffffffffffffffffffffffffffffffffff168173ffffffffffffffffffffffffffffffffffffffff16146113b25760006040517f73c6ac6e0000000000000000000000000000000000000000000000000000000081526004016113a99190611c4a565b60405180910390fd5b505050565b806006600084815260200190815260200160002090816113d791906124d9565b507ff8e1a15aba9398e019f0b49df1a4fde98ee17ae345cb5f6b5e2c27f5033e8ce7826040516114079190611d60565b60405180910390a15050565b60007f01ffc9a7000000000000000000000000000000000000000000000000000000007bffffffffffffffffffffffffffffffffffffffffffffffffffffffff1916827bffffffffffffffffffffffffffffffffffffffffffffffffffffffff1916149050919050565b60006002600083815260200190815260200160002060009054906101000a900473ffffffffffffffffffffffffffffffffffffffff169050919050565b80806114f35750600073ffffffffffffffffffffffffffffffffffffffff168273ffffffffffffffffffffffffffffffffffffffff1614155b1561162757600061150384610ad8565b9050600073ffffffffffffffffffffffffffffffffffffffff168373ffffffffffffffffffffffffffffffffffffffff161415801561156e57508273ffffffffffffffffffffffffffffffffffffffff168173ffffffffffffffffffffffffffffffffffffffff1614155b8015611581575061157f818461089d565b155b156115c357826040517fa9fbf51f0000000000000000000000000000000000000000000000000000000081526004016115ba9190611c4a565b60405180910390fd5b811561162557838573ffffffffffffffffffffffffffffffffffffffff168273ffffffffffffffffffffffffffffffffffffffff167f8c5be1e5ebec7d5bd14f71427d1e84f3dd0314c0f7b2291e5b200ac8c7c3b92560405160405180910390a45b505b836004600085815260200190815260200160002060006101000a81548173ffffffffffffffffffffffffffffffffffffffff021916908373ffffffffffffffffffffffffffffffffffffffff16021790555050505050565b61168a838383611811565b61173e57600073ffffffffffffffffffffffffffffffffffffffff168373ffffffffffffffffffffffffffffffffffffffff16036116ff57806040517f7e2732890000000000000000000000000000000000000000000000000000000081526004016116f69190611d60565b60405180910390fd5b81816040517f177e802f0000000000000000000000000000000000000000000000000000000081526004016117359291906125ab565b60405180910390fd5b505050565b606060006001611752846118d2565b01905060008167ffffffffffffffff81111561177157611770611df1565b5b6040519080825280601f01601f1916602001820160405280156117a35781602001600182028036833780820191505090505b509050600082602001820190505b600115611806578080600190039150507f3031323334353637383961626364656600000000000000000000000000000000600a86061a8153600a85816117fa576117f96125d4565b5b049450600085036117b1575b819350505050919050565b60008073ffffffffffffffffffffffffffffffffffffffff168373ffffffffffffffffffffffffffffffffffffffff16141580156118c957508273ffffffffffffffffffffffffffffffffffffffff168473ffffffffffffffffffffffffffffffffffffffff16148061188a5750611889848461089d565b5b806118c857508273ffffffffffffffffffffffffffffffffffffffff166118b083610b60565b73ffffffffffffffffffffffffffffffffffffffff16145b5b90509392505050565b600080600090507a184f03e93ff9f4daa797ed6e38ed64bf6a1f0100000000000000008310611930577a184f03e93ff9f4daa797ed6e38ed64bf6a1f0100000000000000008381611926576119256125d4565b5b0492506040810190505b6d04ee2d6d415b85acef8100000000831061196d576d04ee2d6d415b85acef81000000008381611963576119626125d4565b5b0492506020810190505b662386f26fc10000831061199c57662386f26fc100008381611992576119916125d4565b5b0492506010810190505b6305f5e10083106119c5576305f5e10083816119bb576119ba6125d4565b5b0492506008810190505b61271083106119ea5761271083816119e0576119df6125d4565b5b0492506004810190505b60648310611a0d5760648381611a0357611a026125d4565b5b0492506002810190505b600a8310611a1c576001810190505b80915050919050565b6000604051905090565b600080fd5b600080fd5b60007fffffffff0000000000000000000000000000000000000000000000000000000082169050919050565b611a6e81611a39565b8114611a7957600080fd5b50565b600081359050611a8b81611a65565b92915050565b600060208284031215611aa757611aa6611a2f565b5b6000611ab584828501611a7c565b91505092915050565b60008115159050919050565b611ad381611abe565b82525050565b6000602082019050611aee6000830184611aca565b92915050565b600081519050919050565b600082825260208201905092915050565b60005b83811015611b2e578082015181840152602081019050611b13565b60008484015250505050565b6000601f19601f8301169050919050565b6000611b5682611af4565b611b608185611aff565b9350611b70818560208601611b10565b611b7981611b3a565b840191505092915050565b60006020820190508181036000830152611b9e8184611b4b565b905092915050565b6000819050919050565b611bb981611ba6565b8114611bc457600080fd5b50565b600081359050611bd681611bb0565b92915050565b600060208284031215611bf257611bf1611a2f565b5b6000611c0084828501611bc7565b91505092915050565b600073ffffffffffffffffffffffffffffffffffffffff82169050919050565b6000611c3482611c09565b9050919050565b611c4481611c29565b82525050565b6000602082019050611c5f6000830184611c3b565b92915050565b611c6e81611c29565b8114611c7957600080fd5b50565b600081359050611c8b81611c65565b92915050565b60008060408385031215611ca857611ca7611a2f565b5b6000611cb685828601611c7c565b9250506020611cc785828601611bc7565b9150509250929050565b600080600060608486031215611cea57611ce9611a2f565b5b6000611cf886828701611c7c565b9350506020611d0986828701611c7c565b9250506040611d1a86828701611bc7565b9150509250925092565b600060208284031215611d3a57611d39611a2f565b5b6000611d4884828501611c7c565b91505092915050565b611d5a81611ba6565b82525050565b6000602082019050611d756000830184611d51565b92915050565b611d8481611abe565b8114611d8f57600080fd5b50565b600081359050611da181611d7b565b92915050565b60008060408385031215611dbe57611dbd611a2f565b5b6000611dcc85828601611c7c565b9250506020611ddd85828601611d92565b9150509250929050565b600080fd5b600080fd5b7f4e487b7100000000000000000000000000000000000000000000000000000000600052604160045260246000fd5b611e2982611b3a565b810181811067ffffffffffffffff82111715611e4857611e47611df1565b5b80604052505050565b6000611e5b611a25565b9050611e678282611e20565b919050565b600067ffffffffffffffff821115611e8757611e86611df1565b5b611e9082611b3a565b9050602081019050919050565b82818337600083830152505050565b6000611ebf611eba84611e6c565b611e51565b905082815260208101848484011115611edb57611eda611dec565b5b611ee6848285611e9d565b509392505050565b600082601f830112611f0357611f02611de7565b5b8135611f13848260208601611eac565b91505092915050565b60008060008060808587031215611f3657611f35611a2f565b5b6000611f4487828801611c7c565b9450506020611f5587828801611c7c565b9350506040611f6687828801611bc7565b925050606085013567ffffffffffffffff811115611f8757611f86611a34565b5b611f9387828801611eee565b91505092959194509250565b60008060408385031215611fb657611fb5611a2f565b5b6000611fc485828601611c7c565b9250506020611fd585828601611c7c565b9150509250929050565b600067ffffffffffffffff821115611ffa57611ff9611df1565b5b61200382611b3a565b9050602081019050919050565b600061202361201e84611fdf565b611e51565b90508281526020810184848401111561203f5761203e611dec565b5b61204a848285611e9d565b509392505050565b600082601f83011261206757612066611de7565b5b8135612077848260208601612010565b91505092915050565b6000806040838503121561209757612096611a2f565b5b60006120a585828601611c7c565b925050602083013567ffffffffffffffff8111156120c6576120c5611a34565b5b6120d285828601612052565b9150509250929050565b7f4e487b7100000000000000000000000000000000000000000000000000000000600052602260045260246000fd5b6000600282049050600182168061212357607f821691505b602082108103612136576121356120dc565b5b50919050565b60006060820190506121516000830186611c3b565b61215e6020830185611d51565b61216b6040830184611c3b565b949350505050565b600081905092915050565b600061218982611af4565b6121938185612173565b93506121a3818560208601611b10565b80840191505092915050565b60006121bb828561217e565b91506121c7828461217e565b91508190509392505050565b7f4e487b7100000000000000000000000000000000000000000000000000000000600052601160045260246000fd5b600061220d82611ba6565b91507fffffffffffffffffffffffffffffffffffffffffffffffffffffffffffffffff820361223f5761223e6121d3565b5b600182019050919050565b600081519050919050565b600082825260208201905092915050565b60006122718261224a565b61227b8185612255565b935061228b818560208601611b10565b61229481611b3a565b840191505092915050565b60006080820190506122b46000830187611c3b565b6122c16020830186611c3b565b6122ce6040830185611d51565b81810360608301526122e08184612266565b905095945050505050565b6000815190506122fa81611a65565b92915050565b60006020828403121561231657612315611a2f565b5b6000612324848285016122eb565b91505092915050565b60008190508160005260206000209050919050565b60006020601f8301049050919050565b600082821b905092915050565b60006008830261238f7fffffffffffffffffffffffffffffffffffffffffffffffffffffffffffffffff82612352565b6123998683612352565b95508019841693508086168417925050509392505050565b6000819050919050565b60006123d66123d16123cc84611ba6565b6123b1565b611ba6565b9050919050565b6000819050919050565b6123f0836123bb565b6124046123fc826123dd565b84845461235f565b825550505050565b600090565b61241961240c565b6124248184846123e7565b505050565b5b818110156124485761243d600082612411565b60018101905061242a565b5050565b601f82111561248d5761245e8161232d565b61246784612342565b81016020851015612476578190505b61248a61248285612342565b830182612429565b50505b505050565b600082821c905092915050565b60006124b060001984600802612492565b1980831691505092915050565b60006124c9838361249f565b9150826002028217905092915050565b6124e282611af4565b67ffffffffffffffff8111156124fb576124fa611df1565b5b612505825461210b565b61251082828561244c565b600060209050601f8311600181146125435760008415612531578287015190505b61253b85826124bd565b8655506125a3565b601f1984166125518661232d565b60005b8281101561257957848901518255600182019150602085019450602081019050612554565b868310156125965784890151612592601f89168261249f565b8355505b6001600288020188555050505b505050505050565b60006040820190506125c06000830185611c3b565b6125cd6020830184611d51565b9392505050565b7f4e487b7100000000000000000000000000000000000000000000000000000000600052601260045260246000fdfea2646970667358221220354bf9f18073ed51f9c752d32a7671629180bad5e211739823317947247b8d3364736f6c63430008140033",
  "linkReferences": {},
  "deployedLinkReferences": {}
}